S01700004763634170706C69636174696F6E312E737265635B
S113000012C02CC02BC02AC029C028C027C026C0BB
S113001025C024C023C022C021C020C01FC01EC0D0
S11300201DC01CC01BC011241FBECFE5D4E0DEBF21
S1130030CDBF12E0A0E6B0E0E6E9F9E002C0059029
S11300400D92AE3BB107D9F722E0AEEBB2E001C0AE
S11300501D92A43CB207E1F77FD19BC4D1CF90BDE0
S113006089B988E18AB986E880BD08955D9BFECF91
S11300708CB90895CF93C82F8A3011F48DE0F6DF40
S11300808C2FF4DF80E090E0CF91089584EA86BF5E
S113009006B607FEFDCF089584E986BF06B604FEC2
S11300A0FDCF089583B984E886BF06B607FEFDCF69
S11300B0089520E4829FC0011124846886BF06B697
S11300C007FEFDCF83B108950F931F93CF93DF9362
S11300D0C82FD62F8A01DADF91B1987F983079F052
S11300E081B1887F1F928F938EE690E09F938F93C8
S11300F07ED10F900F900F900F9080E061C08C2FF5
S1130100880FD0DF81B1887F883179F081B1887F11
S11301101F928F938EE890E09F938F9368D10F90F6
S11301200F900F900F9080E04BC08D2FBBDF81B1FB
S1130130887F883279F081B1887F1F928F9386EB14
S113014090E09F938F9353D10F900F900F900F9047
S113015080E036C09BDF8C2F880F8160A3DF81B1E4
S1130160887F803479F081B1887F1F928F9381EEEC
S113017090E09F938F933BD10F900F900F900F902F
S113018080E01EC001151105D1F081E092DFF80175
S1130190808381B1887F803579F081B1887F1F9217
S11301A08F938AE091E09F938F9321D10F900F90CA
S11301B00F900F9080E004C06FDF81E001C080E009
S11301C0DF91CF911F910F9108951F93CF93DF93E8
S11301D0C82FD62F142F5ADF81B1887F883079F049
S11301E081B1887F1F928F938EE291E09F938F93CA
S11301F0FED00F900F900F900F9080E042C08C2F94
S1130200880F50DF81B1887F883179F081B1887F90
S11302101F928F938FE491E09F938F93E8D00F9078
S11302200F900F900F9080E02CC08D2F3BDF81B199
S1130230887F883279F081B1887F1F928F9388E715
S113024091E09F938F93D3D00F900F900F900F90C6
S113025080E017C0812F26DF81B1887F883279F052
S113026081B1887F1F928F9384EA91E09F938F934B
S1130270BED00F900F900F900F9080E002C00CDF63
S113028081E0DF91CF911F91089581E390E0C2D086
S113029043E660E085E499DF82E390E0BBD040E18F
S11302A061E085E492DF0895CF93DF931F92CDB789
S11302B0DEB71982AE014F5F5F4F60E085E404DF73
S11302C08983982F991F9927991F1F929F9386FBC3
S11302D0992790F91F929F9385FB992790F91F9274
S11302E09F9384FB992790F91F929F9383FB9927EF
S11302F090F91F929F9382FB992790F91F929F93E5
S113030081FB992790F91F929F9381701F928F937D
S11303108AEC91E09F938F936AD00FB6F894DEBF76
S11303200FBECDBF0F90DF91CF91089581E390E090
S113033071D040E86CE084E448DF82E390E06AD066
S11303404AE06DE084E441DF83E390E063D040E879
S11303506EE084E43ADF089580E690E09093C10271
S11303608093C00289E190E07ADE1F928BE18F9343
S11303708FE092E09F938F933AD01F92C0E4CF9383
S113038085E192E09F938F9332D01F92CF9381E4C3
S113039092E09F938F932BD01F92CF9380E692E0AD
S11303A09F938F9324D01F92CF938EE792E09F93D5
S11303B08F931DD081B18C7F81B988E080B9B6DF7D
S11303C073DF8CE992E09F938F9311D05EDF8DEA07
S11303D092E09F938F930BD0A9DF66DF8DB79EB712
S11303E048960FB6F8949EBF0FBE8DBFFFCFA0E016
S11303F0B0E0ECEFF1E0A6C2AE014B5F5F4FFA0153
S113040061917191AF018091C0029091C10208D0B5
S1130410E2E0B4C26091C0027091C102E9D10895D2
S1130420ABE0B0E0E5E1F2E07DC26C017B018A0162
S1130430FC0117821682838181FFBFC1CE01019620
S11304403C01F6019381F70193FD859193FF81911E
S11304507F01882309F4ADC1853239F493FD859178
S113046093FF81917F01853221F4B60190E0C0D1E0
S1130470E8CF912C212C312CFFE1F315D8F08B32ED
S113048079F038F4803279F08332A1F4232D20619D
S11304901DC08D3261F0803369F4232D216016C0B4
S11304A0832D8260382EE32DE4603E2E2AC0F32D86
S11304B0F8601DC037FC2DC020ED280F2A3040F015
S11304C08E32B9F436FC75C1232D2064322E19C046
S11304D036FE06C08AE0989E200D1124922E11C08B
S11304E0EAE02E9E200D1124222EF32DF0623F2EE1
S11304F008C08C3621F4832D8068382E02C08836DB
S113050041F4F70193FD859193FF81917F0181115E
S1130510B3CF982F9F7D9554933028F40C5F1F4FD1
S11305209FE399830DC0833631F0833771F08335AF
S113053009F055C020C0F801808189830E5F1F4FE8
S113054088248394912C530112C02801F2E04F0EA9
S1130550511CF801A080B18036FE03C0692D70E003
S113056002C06FEF7FEFC50138D14C018201F32D3A
S1130570FF773F2E15C0280122E0420E511CF801DE
S1130580A080B18036FE03C0692D70E002C06FEF19
S11305907FEFC50117D14C01F32DF0683F2E820186
S11305A033FC19C0822D90E088169906A0F4B60198
S11305B080E290E01DD12A94F5CFF50137FC8591B6
S11305C037FE81915F01B60190E012D121102A9487
S11305D021E0821A91088114910479F7E1C08436EC
S11305E011F0893639F5F80137FE07C06081718151
S11305F0828193810C5F1F4F08C060817181072E37
S1130600000C880B990B0E5F1F4FF32DFF763F2EC6
S113061097FF09C090958095709561957F4F8F4F96
S11306209F4FF0683F2E2AE030E0A3011DD1882EB1
S1130630861844C0853731F4232D2F7EB22E2AE04C
S113064030E025C0932D997FB92E8F36C1F018F470
S1130650883579F0AEC0803719F0883721F0A9C009
S1130660E92FE061BE2EB4FE0DC0FB2DF460BF2E59
S113067009C034FE0AC0292F2660B22E06C028E025
S113068030E005C020E130E002C020E132E0F801B2
S1130690B7FE07C060817181828193810C5F1F4F17
S11306A006C06081718180E090E00E5F1F4FA3015E
S11306B0DBD0882E8618FB2DFF773F2E36FE0DC02B
S11306C0232D2E7FA22E891458F434FE0BC032FC45
S11306D009C0832D8E7EA82E05C0B82CA32C03C080
S11306E0B82C01C0B92CA4FE0FC0FE01E80DF11D09
S11306F08081803321F49A2D997EA92E09C0A2FE0F
S113070006C0B394B39404C08A2D867809F0B394D8
S1130710A3FC10C0A0FE06C0B21480F4280C922CD6
S11307209B180DC0B21458F4B60180E290E060D07A
S1130730B394F8CFB21418F42B1802C0982C212CBF
S1130740A4FE0FC0B60180E390E052D0A2FE16C012
S1130750A1FC03C088E790E002C088E590E0B60100
S11307600CC08A2D867851F0A1FE02C08BE201C034
S113077080E2A7FC8DE2B60190E03AD0891430F40F
S1130780B60180E390E034D09A94F8CF8A94F301D0
S1130790E80DF11D8081B60190E02AD08110F6CFDA
S11307A0222009F44ECEB60180E290E021D02A94B2
S11307B0F7CFF6018681978102C08FEF9FEF2B96CA
S11307C0E2E1CCC0FC010590615070400110D8F703
S11307D0809590958E0F9F1F0895FC016150704085
S11307E001900110D8F7809590958E0F9F1F089562
S11307F00F931F93CF93DF93FB01238121FD03C04C
S11308008FEF9FEF2CC022FF16C0468157812481B1
S113081035814217530744F4A081B1819D012F5FB4
S11308203F4F318320838C93268137812F5F3F4F45
S11308303783268314C08B01EC01FB010084F1850E
S1130840E02D0995892BE1F6D80116968D919C919E
S11308501797019617969C938E931697CE01DF9166
S1130860CF911F910F910895FA01AA27283051F1D1
S1130870203181F1E8946F936E7F6E5F7F4F8F4FCD
S11308809F4FAF4FB1E03ED0B4E03CD0670F781F2C
S1130890891F9A1FA11D680F791F8A1F911DA11D11
S11308A06A0F711D811D911DA11D20D009F468944A
S11308B03F912AE0269F11243019305D3193DEF6F2
S11308C0CF010895462F4770405D4193B3E00FD0A8
S11308D0C9F7F6CF462F4F70405D4A3318F0495D93
S11308E031FD4052419302D0A9F7EACFB4E0A69576
S11308F09795879577956795BA95C9F70097610598
S1130900710508959B01AC010A2E069457954795ED
S113091037952795BA95C9F7620F731F841F951FE2
S1130920A01D08952F923F924F925F926F927F92F3
S11309308F929F92AF92BF92CF92DF92EF92FF92EB
S11309400F931F93CF93DF93CDB7DEB7CA1BDB0B97
S11309500FB6F894DEBF0FBECDBF09942A8839883C
S113096048885F846E847D848C849B84AA84B98443
S1130970C884DF80EE80FD800C811B81AA81B9814F
S1130980CE0FD11D0FB6F894DEBF0FBECDBFED0163
S10909900895F894FFCF66
S113099600000002000000003A0000000000494385
S11309A63252656164427974653A20737461727473
S11309B6206572726F7220307825780A0D004943DB
S11309C63252656164427974653A20777269746556
S11309D62061646472657373206572726F7220306D
S11309E67825780A0D004943325265616442797468
S11309F6653A2077726974652073756261646472FE
S1130A06657373206572726F7220307825780A0DCB
S1130A160049433252656164427974653A207772BB
S1130A2669746520616464726573733220657272D9
S1130A366F7220307825780A0D0049433252656179
S1130A4664427974653A20726561642064617461F4
S1130A56206572726F7220307825780A0D0049433A
S1130A66325772697465427974653A207374617297
S1130A7674206572726F7220307825780A0D0049E9
S1130A8643325772697465427974653A207772699C
S1130A9674652061646472657373206572726F7223
S1130AA620307825780A0D004943325772697465F7
S1130AB6427974653A207772697465207375626148
S1130AC6646472657373206572726F722030782560
S1130AD6780A0D0049433257726974654279746520
S1130AE63A20777269746520646174612065727254
S1130AF66F7220307825780A0D0054444139313616
S1130B0630413A204652512025642053424B202539
S1130B16642053414B2025642050524F54202564B1
S1130B2620534C20256420535453202564204653D7
S1130B364920256420504F52202564200A0D0025A3
S1130B46635B324A0048657265206973206D797665
S1130B56616C756520617320616E20756E736967BB
S1130B666E656420696E74656765723A2025640A49
S1130B760048657265206973206D7976616C7565C8
S1130B86206173206120636861723A2025630A003C
S1130B9648657265206973206D7976616C75652088
S1130BA6696E206865783A20307825580A004865C9
S1130BB67265206973206D7976616C756520696E3E
S1130BC6206F6374616C3A20256F0A0054444139DE
S1130BD63136304120696E6974200A0D005444414F
S1110BE63437383020696E6974200A0D00001F
S9030000FC
