S01200006E6176695F74756E65722E73726563D7
S11300002EC048C047C046C045C044C043C042C0DB
S113001041C084C03FC03EC03DC03CC03BC03AC0AC
S113002039C038C037C000000000000000000008DC
S113003000000008000000080000000800000000A4
S113004000000008000004B6E704B6D304B6C703F2
S1130050910302900303AC8103AC8002900011244D
S11300601FBECFE5D4E0DEBFCDBF11E0A0E6B0E017
S1130070E0EAF2E102C005900D92A83CB107D9F77D
S113008021E0A8ECB1E001C01D92A43DB207E1F764
S11300906FD004C9B5CFCF938091CA018F5F80938D
S11300A0CA018430A0F01092CD01C4E180E890E050
S11300B00CD62FEF8BE792E9215080409040E1F776
S11300C000C00000C15091F7C0981092CB01CF91AD
S11300D00895EF92FF921F93CF93DF937C018EE0FC
S11300E0F70111928A95E9F7C0EADFE034D4182FBA
S11300F0882321F0C70135D4811109C08FE097E22C
S11301000197F1F700C00000219781F710E0812FDB
S1130110DF91CF911F91FF90EF9008951F920F925E
S11301200FB60F9211242F938F939F9312BE809139
S1130130C8019091C90101969093C9018093C801A7
S11301408091C8019091C9018E3399444CF010926A
S1130150CD01C0981092CB011092C9011092C80130
S11301609F918F912F910F900FBE0F901F90189514
S1130170CF93DF93CDB7DEB72E970FB6F894DEBFDB
S11301800FBECDBFB89AC09812BE85E083BF81E090
S113019089BF789480E690E09093D1018093D00158
S11301A089E190E055D50AE010E08AE290E087D535
S11301B001501109D1F78EE890E09F938F936CD58D
S11301C083E05FD386E290E0C7D40F900F900F2EA8
S11301D0F4E6CF2EF2E0DF2EE12CF12CF02D10927C
S11301E0C9011092C8018091CD01811113C1C98246
S11301F0DA82EB82FC828D818E7F8D7F8D8382E01B
S11302008E8381EA8F8381E08887CE0101964CD466
S1130210912C11E00F2EF3EB2F2EF02D0F2EF3E087
S1130220AF2EF02D0F2EF3E13F2EF02D0F2EF3E223
S11302304F2EF02D0F2EF2EB5F2EF02D0F2EF7E048
S1130240BF2EF02D0F2EF2E16F2EF02D0F2EF9E0C0
S11302507F2EF02D0F2EF2E48F2EF02D00E5D2C06C
S113026089819A81AB81BC8184369440A105B10512
S113027009F0C8C08E81833009F041C08F81803E6F
S113028009F58885813009F073C08985811170C0B2
S1130290C982DA82EB82FC8282E08E8381EA8F83D8
S11302A01887CE01019600D4BE8280E18F8385E158
S11302B0888719871A861B871C861D86CE0101969E
S11302C0F3D3A0C0803109F053C088858111A2C244
S11302D08985813009F09EC2C982DA82EB82FC8270
S11302E01E8381EB8F83CE010196DED3AE8281E142
S11302F08F8318871987CE010196D6D383C08230A5
S113030009F07AC08F818131D9F48885883009F069
S113031079C0C982DA82EB82FC821E835F82CE01BD
S11303200196C2D3BE826F82788619878A860B872C
S113033083E68C878EE18D87CE010196B5D362C0AA
S1130340823109F05FC08885823209F05BC0C982BE
S1130350DA82EB82FC821E832F82CE010196A4D323
S1130360AE823F8248861986CE0101969DD34AC04B
S11303708F81833199F48885863209F043C0898559
S11303808F3F09F03FC0C982DA82EB82FC821E8370
S113039084EB8F83CE01019687D334C0843191F5E9
S11303A08885803579F5898581112CC0C982DA82E6
S11303B0EB82FC8291100EC084E08E8384E18F83F3
S11303C08BE08887198786E28A87CE0101966CD3F1
S11303D0912E18C01E8385EB8F83CE01019664D3C2
S11303E084E08E8385E18F838BE0888719870A8771
S11303F0CE01019659D306C0813021F48F81863B0A
S113040009F4F8C1CE01019664DE811129CFE0C15F
S113041042DEE5CECE0101965CDE882309F4F8C104
S113042089819A81AB81BC81823423E09207A10542
S1130430B10509F47BC138F481349340A105B105B9
S113044009F45EC1CCCE8E3523E09207A105B10537
S113045009F482C184369440A105B10509F0BFCEE8
S11304608E81853009F005C111E08985813009F05C
S113047010E00F810F700F541F82188681E0898766
S113048045E050E063EC71E0CE010796F8D3892B88
S113049061F41F921F9387E990E09F938F93FCD39D
S11304A00F900F900F900F90D6C045E050E06EEB88
S11304B071E0CE010796E3D3892B61F41F921F9359
S11304C085EA90E09F938F93E7D30F900F900F905E
S11304D00F90C1C045E050E069EB71E0CE01079692
S11304E0CED3892B61F41F921F9381EB90E09F93ED
S11304F08F93D2D30F900F900F900F90ACC045E024
S113050050E064EB71E0CE010796B9D3892B61F416
S11305101F921F9380EC90E09F938F93BDD30F9015
S11305200F900F900F9097C045E050E06FEA71E094
S1130530CE010796A4D3892B61F41F921F938EECEE
S113054090E09F938F93A8D30F900F900F900F90EC
S113055082C045E050E06AEA71E0CE0107968FD38D
S1130560892B61F41F921F938CED90E09F938F93DE
S113057093D30F900F900F900F906DC045E050E013
S113058065EA71E0CE0107967AD3892B61F41F9254
S11305901F938BEE90E09F938F937ED30F900F90D9
S11305A00F900F9058C045E050E060EA71E0CE0132
S11305B0079665D3892B61F41F921F9389EF90E00E
S11305C09F938F9369D30F900F900F900F9043C018
S11305D045E050E06BE971E0CE01079650D3892BDA
S11305E021F489E091E071D336C045E050E066E93A
S11305F071E0CE01079643D3892B21F48BE191E07E
S113060064D329C045E050E061E971E0CE0107966A
S113061036D3892B61F41F921F938CE291E09F9350
S11306208F933AD30F900F900F900F9014C045E022
S113063050E06CE871E0CE01079621D3892B59F480
S11306401F921F9382E491E09F938F9325D30F9081
S11306500F900F900F90003C08F000EBC982DA82F3
S1130660EB82FC8281E08E830F83CE0101961CD243
S1130670B6CD8230A9F48F81833A09F0B0CD888554
S11306808111ADCDC982DA82EB82FC8282E08E8355
S113069081EA8F8381E08887CE01019605D29FCDC0
S11306A0833009F09CCD8F81803E51F48885813060
S11306B009F095CD8985811192CD1092CD018FCD10
S11306C084FF8DCD988591118ACD9985923009F05A
S11306D086CDC982DA82EB82FC8211E01E838F70A0
S11306E080558F83CE010196DFD183E08E8386E12E
S11306F08F83188782E08987CE010196D5D188C07F
S11307008E81883009F06BCD8091CC01813009F065
S113071066CD88E0EEE6F0E0DE01179601900D92DA
S11307208A95E1F7CE010196BFD159CD8E818830EB
S113073009F055CD8091CC01813009F050CD88E08D
S1130740E7E7F0E0DE01179601900D928A95E1F754
S1130750CE010196A9D143CD8E81843009F03FCDDD
S11307608F81813009F03BCD8885813009F037CD08
S11307708985823109F033CD8A85883389F0803ABE
S1130780D9F0873309F02BCD8091CC01813009F465
S113079026CD81E08093CC018EE491E096D21FCDEA
S11307A08091CC01823009F41ACD82E08093CC018F
S11307B086E591E08AD213CD8091CC01833009F48F
S11307C00ECD83E08093CC018EE591E07ED207CDFF
S11307D089E691E07AD28FEF9DE329E4815090403D
S11307E02040E1F700C000008091CB01882309F488
S11307F0F6CC0ECE8FE791E068D281E08093CD01F4
S11308001092CC011092CA01C09A8093CB01E7CC1C
S113081042DCE5CC8F81C2CDCF93DF93D82FC62F96
S1130820C29882E010D28D2F0ED28C2F0CD2C29A95
S1130830DF91CF910895CF93C82FC29883E003D25C
S11308408C2F01D28FEFFFD1C29ACF9108951F93BD
S1130850CF93DF93182FD62FC42FC29885E0F3D1FE
S1130860812FF1D18D2FEFD18C2FEDD1C29ADF9151
S1130870CF911F910895C298E6D18FEFE4D1C29A27
S11308800895DF92EF92FF920F931F93CF93DF931C
S1130890883008F055C0082FC29ABA9AC598C398F0
S11308A0C498BD9ABB9ABC98C9D1C29880ECCBD1EC
S11308B08FEC97E00197F1F700C00000C29AEFE1D6
S11308C0FEE43197F1F700C00000C29882E0BBD18A
S11308D088E2B9D1C02FD0E0CE01880F991FC80F8C
S11308E0D91FCA5BDF4F0F2EF3E0DF2EF02D10E08F
S11308F0FE018491A8D1DA942196D110F9CF83E036
S1130900A2D1C29A60E08DE087DFB998C19A60E015
S11309108CE082DF89E28FDFC82FF801EE0FFF1F22
S1130920E00FF11FE95BFF4FE49060E08FE074DFBC
S1130930CE1108C08EE07FDF807EE1F781E003C046
S113094080E001C080E0DF91CF911F910F91FF9073
S1130950EF90DF90089586B38695817091E08927A2
S11309600895CF92DF92EF92FF920F931F93CF934C
S1130970DF937C0180EB7FDFD82E8074C82ED6FCF9
S113098004C0DD20D4F584E901C080E9C2985BD1BC
S1130990C7013DD0F701948180FB91F994838FEFD7
S11309A052D1D3FA992790F9F701248190FB20F9C9
S11309B024838F708583882379F0E70126968150FC
S11309C0082F10E0095F1F4F0E0D1F1D8FEF3BD145
S11309D08993C017D107D1F7C29ACC2029F040E0FF
S11309E061E08CE234DF04C040E062E08CE22FDF9F
S11309F08D2D8770CC24C394C80E8C2DDF91CF919C
S1130A001F910F91FF90EF90DF90CF9008951F9367
S1130A10CF93DF93EC018FEF16D1182F8FEF13D103
S1130A20482F487083FF1EC09FEF9FB990E2199F23
S1130A30900111243B832A83779BFECF9FB1998336
S1130A409FEF9FB9282F23709A81922B86958695C4
S1130A5086958C71892B8A83779BFECF8FB188838F
S1130A6041E01DC09FEF9FB91B821A82212F30E005
S1130A70220F331F220F331F220F331F3983288382
S1130A80779BFECF9FB19FEF9FB9982F9295969534
S1130A9097708881982B9883779BFECF8FB1842F92
S1130AA0DF91CF911F910895DF92EF92FF920F9300
S1130AB01F93CF93DF937C0180EADDDE82FF08C0C1
S1130AC084FF08C086FD3FC06894DD24D2F805C0C9
S1130AD0D12C03C06894DD24D1F8C2988D2D806494
S1130AE0B2D0F701648166956170C7016DD0F701DA
S1130AF015811F70848180FF04C0812F8064A3D07E
S1130B0012C0812FA0D0112371F0E7012696115055
S1130B10012F10E0095F1F4F0E0D1F1D899193D007
S1130B20C017D107D9F7C29AF2E0FA95F1F700C0DD
S1130B30C298D11002C0DD24D3948D2D806883D057
S1130B40C29A8D2D01C080E0DF91CF911F910F914A
S1130B50FF90EF90DF9008950F931F93CF93DF934F
S1130B608C0140E860EE8FE072DE8EE064DE807E11
S1130B708038D9F764E080E64FDE60E080E74CDE41
S1130B80D0E0C29882E05FD08D2F5DD0C0E0D0323B
S1130B9011F4C83090F40F5F1F4FF801319784911E
S1130BA052D0CF5FCC3099F7C29AD05FD03349F797
S1130BB040E060EE8FE04BDE02C0C29AF9CFDF91D5
S1130BC0CF911F910F910895CF93DF93EC0166238A
S1130BD0E9F08A819B8196958795929582958F708D
S1130BE089279F7089278FB99A81892F880F880F49
S1130BF0880F807E93708860892B779BFECF9FB18E
S1130C0022D0898120D088811ED015C08881998105
S1130C109695879596958795969587958FB98881AA
S1130C208295880F807E779BFECF9FB10CD080E0A9
S1130C300AD080E008D0DF91CF91089581E58DB985
S1130C4081E08EB908958FB9779BFECF8FB1089557
S1130C5090BD89B988E18AB986E880BD08955D9B15
S1130C60FECF8CB90895CF93C82F8A3011F48DE04C
S1130C70F6DF8C2FF4DF80E090E0CF910895FB0144
S1130C80DC0104C08D910190801921F44150504041
S1130C90C8F7881B990B0895A0E0B0E0E1E5F6E001
S1130CA0D6C2AE014B5F5F4FFA0161917191AF0102
S1130CB08091D0019091D10138D0E2E0E4C26091FA
S1130CC0D0017091D10119D208950F931F93CF933E
S1130CD0DF93E091D001F091D101238121FF1BC06A
S1130CE08C01D0E0C0E0F80181918F016091D001C6
S1130CF07091D101DB011896ED91FC91199788232D
S1130D0031F00995892B79F3DFEFCFEFECCF8AE04F
S1130D100995892B19F08FEF9FEF02C08D2F9C2F1F
S1130D20DF91CF911F910F910895ABE0B0E0EAE914
S1130D30F6E07DC26C017B018A01FC0117821682F8
S1130D40838181FFBFC1CE0101963C01F6019381ED
S1130D50F70193FD859193FF81917F01882309F425
S1130D60ADC1853239F493FD859193FF81917F0163
S1130D70853221F4B60190E0C0D1E8CF912C212C2A
S1130D80312CFFE1F315D8F08B3279F038F480324E
S1130D9079F08332A1F4232D20611DC08D3261F0DE
S1130DA0803369F4232D216016C0832D8260382E90
S1130DB0E32DE4603E2E2AC0F32DF8601DC037FCFD
S1130DC02DC020ED280F2A3040F08E32B9F436FCC5
S1130DD075C1232D2064322E19C036FE06C08AE068
S1130DE0989E200D1124922E11C0EAE02E9E200D13
S1130DF01124222EF32DF0623F2E08C08C3621F4EC
S1130E00832D8068382E02C0883641F4F70193FDA3
S1130E10859193FF81917F018111B3CF982F9F7D9D
S1130E209554933028F40C5F1F4F9FE399830DC0B2
S1130E30833631F0833771F0833509F055C020C013
S1130E40F801808189830E5F1F4F88248394912C3D
S1130E50530112C02801F2E04F0E511CF801A0808A
S1130E60B18036FE03C0692D70E002C06FEF7FEFE2
S1130E70C50138D14C018201F32DFF773F2E15C0F7
S1130E80280122E0420E511CF801A080B18036FEF8
S1130E9003C0692D70E002C06FEF7FEFC50117D169
S1130EA04C01F32DF0683F2E820133FC19C0822DD2
S1130EB090E088169906A0F4B60180E290E01DD176
S1130EC02A94F5CFF50137FC859137FE81915F01B6
S1130ED0B60190E012D121102A9421E0821A9108DF
S1130EE08114910479F7E1C0843611F0893639F51B
S1130EF0F80137FE07C060817181828193810C5FA4
S1130F001F4F08C060817181072E000C880B990B5C
S1130F100E5F1F4FF32DFF763F2E97FF09C090956C
S1130F208095709561957F4F8F4F9F4FF0683F2E4E
S1130F302AE030E0A3011DD1882E861844C08537ED
S1130F4031F4232D2F7EB22E2AE030E025C0932DDC
S1130F50997FB92E8F36C1F018F4883579F0AEC078
S1130F60803719F0883721F0A9C0E92FE061BE2E3F
S1130F70B4FE0DC0FB2DF460BF2E09C034FE0AC0C0
S1130F80292F2660B22E06C028E030E005C020E1FB
S1130F9030E002C020E132E0F801B7FE07C0608112
S1130FA07181828193810C5F1F4F06C060817181C2
S1130FB080E090E00E5F1F4FA301DBD0882E8618DF
S1130FC0FB2DFF773F2E36FE0DC0232D2E7FA22E44
S1130FD0891458F434FE0BC032FC09C0832D8E7E74
S1130FE0A82E05C0B82CA32C03C0B82C01C0B92C62
S1130FF0A4FE0FC0FE01E80DF11D8081803321F4B1
S11310009A2D997EA92E09C0A2FE06C0B394B3946A
S113101004C08A2D867809F0B394A3FC10C0A0FE06
S113102006C0B21480F4280C922C9B180DC0B21484
S113103058F4B60180E290E060D0B394F8CFB214D3
S113104018F42B1802C0982C212CA4FE0FC0B60152
S113105080E390E052D0A2FE16C0A1FC03C088E752
S113106090E002C088E590E0B6010CC08A2D867835
S113107051F0A1FE02C08BE201C080E2A7FC8DE228
S1131080B60190E03AD0891430F4B60180E390E0E0
S113109034D09A94F8CF8A94F301E80DF11D80813D
S11310A0B60190E02AD08110F6CF222009F44ECE6A
S11310B0B60180E290E021D02A94F7CFF601868130
S11310C0978102C08FEF9FEF2B96E2E1CCC0FC0129
S11310D00590615070400110D8F7809590958E0F5F
S11310E09F1F0895FC016150704001900110D8F7D2
S11310F0809590958E0F9F1F08950F931F93CF9304
S1131100DF93FB01238121FD03C08FEF9FEF2CC0F0
S113111022FF16C046815781248135814217530727
S113112044F4A081B1819D012F5F3F4F318320831F
S11311308C93268137812F5F3F4F3783268314C0DA
S11311408B01EC01FB010084F185E02D0995892BCD
S1131150E1F6D80116968D919C91179701961796F2
S11311609C938E931697CE01DF91CF911F910F918F
S11311700895FA01AA27283051F1203181F1E89429
S11311806F936E7F6E5F7F4F8F4F9F4FAF4FB1E076
S11311903ED0B4E03CD0670F781F891F9A1FA11D71
S11311A0680F791F8A1F911DA11D6A0F711D811D72
S11311B0911DA11D20D009F468943F912AE0269F37
S11311C011243019305D3193DEF6CF010895462F96
S11311D04770405D4193B3E00FD0C9F7F6CF462F77
S11311E04F70405D4A3318F0495D31FD40524193E0
S11311F002D0A9F7EACFB4E0A6959795879577959D
S11312006795BA95C9F700976105710508959B0123
S1131210AC010A2E06945795479537952795BA95AC
S1131220C9F7620F731F841F951FA01D08952F9285
S11312303F924F925F926F927F928F929F92AF9262
S1131240BF92CF92DF92EF92FF920F931F93CF93AF
S1131250DF93CDB7DEB7CA1BDB0B0FB6F894DEBF46
S11312600FBECDBF09942A88398848885F846E846C
S11312707D848C849B84AA84B984C884DF80EE80B6
S1131280FD800C811B81AA81B981CE0FD11D0FB6BF
S1131290F894DEBF0FBECDBFED010895F894FFCFE3
S11312A0000000020000000033060000000052416C
S11312B053504245525200592033422B20202000E3
S11312C04E4156495F5455524E5F4F464600537443
S11312D0617274656421004E4156495F4C45465421
S11312E02025640A004E4156495F55502025640A62
S11312F0004E4156495F52494748542025640A002C
S11313004E4156495F444F574E2025640A004E41D2
S113131056495F504C55532025640A004E415649A6
S11313205F4D494E55532025640A004E4156495F8E
S11313304D4F44452025640A004E4156495F5245AD
S11313405455524E2025640A004E4156495F53437A
S1131350524F4C4C5F5249474854004E4156495FE6
S11313605343524F4C4C5F4C454654004E415649F2
S11313705F5343524F4C4C5F5052455353202564A6
S11313800A004E4156495F41532025640A004E41EC
S113139056495F5456004E4156495F4344004E41FE
S11313A056495F524144494F004661696C65642067
S11313B0746F20696E69742074756E6572210054AF
S11313C0756E657220696E697465640000000104BD
S11313D000000001000500000100FF00000101FF02
S11313E000000100500000010003000001000100A2
S11313F000010020000001200000000103000000A3
S10B14000102000000010100DB
S9030000FC
